{
  "_format": "hh-sol-artifact-1",
  "contractName": "Auction",
  "sourceName": "contracts/Auction.sol",
  "abi": [
    {
      "inputs": [
        {
          "internalType": "uint256",
          "name": "startPrice_",
          "type": "uint256"
        },
        {
          "internalType": "uint256",
          "name": "startDate_",
          "type": "uint256"
        },
        {
          "internalType": "uint256",
          "name": "endDate_",
          "type": "uint256"
        },
        {
          "internalType": "uint256",
          "name": "tokenAmount_",
          "type": "uint256"
        },
        {
          "internalType": "address",
          "name": "tokenAddr_",
          "type": "address"
        }
      ],
      "stateMutability": "payable",
      "type": "constructor"
    },
    {
      "anonymous": false,
      "inputs": [
        {
          "indexed": false,
          "internalType": "address",
          "name": "buyer",
          "type": "address"
        },
        {
          "indexed": false,
          "internalType": "uint256",
          "name": "amount",
          "type": "uint256"
        }
      ],
      "name": "Bid",
      "type": "event"
    },
    {
      "inputs": [],
      "name": "auctionedAmount",
      "outputs": [
        {
          "internalType": "uint256",
          "name": "",
          "type": "uint256"
        }
      ],
      "stateMutability": "view",
      "type": "function"
    },
    {
      "inputs": [],
      "name": "bid",
      "outputs": [],
      "stateMutability": "payable",
      "type": "function"
    },
    {
      "inputs": [],
      "name": "buyer",
      "outputs": [
        {
          "internalType": "address payable",
          "name": "",
          "type": "address"
        }
      ],
      "stateMutability": "view",
      "type": "function"
    },
    {
      "inputs": [],
      "name": "currentPrice",
      "outputs": [
        {
          "internalType": "uint256",
          "name": "",
          "type": "uint256"
        }
      ],
      "stateMutability": "payable",
      "type": "function"
    },
    {
      "inputs": [],
      "name": "currentTime",
      "outputs": [
        {
          "internalType": "uint256",
          "name": "",
          "type": "uint256"
        }
      ],
      "stateMutability": "view",
      "type": "function"
    },
    {
      "inputs": [],
      "name": "endDate",
      "outputs": [
        {
          "internalType": "uint256",
          "name": "",
          "type": "uint256"
        }
      ],
      "stateMutability": "view",
      "type": "function"
    },
    {
      "inputs": [],
      "name": "getOwner",
      "outputs": [
        {
          "internalType": "address",
          "name": "",
          "type": "address"
        }
      ],
      "stateMutability": "view",
      "type": "function"
    },
    {
      "inputs": [],
      "name": "owner",
      "outputs": [
        {
          "internalType": "address payable",
          "name": "",
          "type": "address"
        }
      ],
      "stateMutability": "view",
      "type": "function"
    },
    {
      "inputs": [],
      "name": "startDate",
      "outputs": [
        {
          "internalType": "uint256",
          "name": "",
          "type": "uint256"
        }
      ],
      "stateMutability": "view",
      "type": "function"
    },
    {
      "inputs": [],
      "name": "startPrice",
      "outputs": [
        {
          "internalType": "uint256",
          "name": "",
          "type": "uint256"
        }
      ],
      "stateMutability": "view",
      "type": "function"
    },
    {
      "inputs": [],
      "name": "token",
      "outputs": [
        {
          "internalType": "contract Token",
          "name": "",
          "type": "address"
        }
      ],
      "stateMutability": "view",
      "type": "function"
    }
  ],
  "bytecode": "0x60806040526040516200163d3803806200163d8339818101604052810190620000299190620002b8565b600085116200006f576040517f08c379a0000000000000000000000000000000000000000000000000000000008152600401620000669062000450565b60405180910390fd5b838311620000b4576040517f08c379a0000000000000000000000000000000000000000000000000000000008152600401620000ab906200042e565b60405180910390fd5b80600860006101000a81548173ffffffffffffffffffffffffffffffffffffffff021916908373ffffffffffffffffffffffffffffffffffffffff1602179055506000600860009054906101000a900473ffffffffffffffffffffffffffffffffffffffff1673ffffffffffffffffffffffffffffffffffffffff166370a08231336040518263ffffffff1660e01b815260040162000154919062000411565b60206040518083038186803b1580156200016d57600080fd5b505afa15801562000182573d6000803e3d6000fd5b505050506040513d601f19601f82011682018060405250810190620001a891906200028c565b9050828111620001ef576040517f08c379a0000000000000000000000000000000000000000000000000000000008152600401620001e69062000472565b60405180910390fd5b336000806101000a81548173ffffffffffffffffffffffffffffffffffffffff021916908373ffffffffffffffffffffffffffffffffffffffff160217905550856003819055508460048190555083600581905550426006819055508260078190555050505050505062000517565b6000815190506200026f81620004e3565b92915050565b6000815190506200028681620004fd565b92915050565b6000602082840312156200029f57600080fd5b6000620002af8482850162000275565b91505092915050565b600080600080600060a08688031215620002d157600080fd5b6000620002e18882890162000275565b9550506020620002f48882890162000275565b9450506040620003078882890162000275565b93505060606200031a8882890162000275565b92505060806200032d888289016200025e565b9150509295509295909350565b6200034581620004a5565b82525050565b60006200035a601e8362000494565b91507f696e76616c696420656e64446174655f206f72207374617274446174655f00006000830152602082019050919050565b60006200039c60138362000494565b91507f696e76616c696420737461727450726963655f000000000000000000000000006000830152602082019050919050565b6000620003de60208362000494565b91507f6e6f7420656e6f75676820746f6b656e20746f2062652061756374696f6e65646000830152602082019050919050565b60006020820190506200042860008301846200033a565b92915050565b6000602082019050818103600083015262000449816200034b565b9050919050565b600060208201905081810360008301526200046b816200038d565b9050919050565b600060208201905081810360008301526200048d81620003cf565b9050919050565b600082825260208201905092915050565b6000620004b282620004b9565b9050919050565b600073ffffffffffffffffffffffffffffffffffffffff82169050919050565b6000819050919050565b620004ee81620004a5565b8114620004fa57600080fd5b50565b6200050881620004d9565b81146200051457600080fd5b50565b61111680620005276000396000f3fe60806040526004361061009c5760003560e01c80639d1b464a116100645780639d1b464a14610157578063bc5bd34314610175578063c24a0f8b146101a0578063d18e81b3146101cb578063f1a9af89146101f6578063fc0c546a146102215761009c565b80630b97bc86146100a15780631998aeef146100cc5780637150d8ae146100d6578063893d20e8146101015780638da5cb5b1461012c575b600080fd5b3480156100ad57600080fd5b506100b661024c565b6040516100c39190610eaa565b60405180910390f35b6100d4610252565b005b3480156100e257600080fd5b506100eb61082e565b6040516100f89190610d14565b60405180910390f35b34801561010d57600080fd5b50610116610854565b6040516101239190610cde565b60405180910390f35b34801561013857600080fd5b5061014161087d565b60405161014e9190610d14565b60405180910390f35b61015f6108a1565b60405161016c9190610eaa565b60405180910390f35b34801561018157600080fd5b5061018a61095e565b6040516101979190610eaa565b60405180910390f35b3480156101ac57600080fd5b506101b5610964565b6040516101c29190610eaa565b60405180910390f35b3480156101d757600080fd5b506101e061096a565b6040516101ed9190610eaa565b60405180910390f35b34801561020257600080fd5b5061020b610970565b6040516102189190610eaa565b60405180910390f35b34801561022d57600080fd5b50610236610976565b6040516102439190610d8f565b60405180910390f35b60045481565b60008054906101000a900473ffffffffffffffffffffffffffffffffffffffff1673ffffffffffffffffffffffffffffffffffffffff163373ffffffffffffffffffffffffffffffffffffffff1614156102e1576040517f08c379a00000000000000000000000000000000000000000000000000000000081526004016102d890610e2a565b60405180910390fd5b6004544211610325576040517f08c379a000000000000000000000000000000000000000000000000000000000815260040161031c90610e0a565b60405180910390fd5b6005544210610369576040517f08c379a000000000000000000000000000000000000000000000000000000000815260040161036090610e8a565b60405180910390fd5b600073ffffffffffffffffffffffffffffffffffffffff16600160009054906101000a900473ffffffffffffffffffffffffffffffffffffffff1673ffffffffffffffffffffffffffffffffffffffff16146103fa576040517f08c379a00000000000000000000000000000000000000000000000000000000081526004016103f190610dea565b60405180910390fd5b6e13426172c74d822b878fe800000000341061041557600080fd5b343373ffffffffffffffffffffffffffffffffffffffff16311161046e576040517f08c379a000000000000000000000000000000000000000000000000000000000815260040161046590610daa565b60405180910390fd5b60006104786108a1565b9050803410156104bd576040517f08c379a00000000000000000000000000000000000000000000000000000000081526004016104b490610e4a565b60405180910390fd5b600754600860009054906101000a900473ffffffffffffffffffffffffffffffffffffffff1673ffffffffffffffffffffffffffffffffffffffff166370a0823160008054906101000a900473ffffffffffffffffffffffffffffffffffffffff166040518263ffffffff1660e01b815260040161053b9190610cf9565b60206040518083038186803b15801561055357600080fd5b505afa158015610567573d6000803e3d6000fd5b505050506040513d601f19601f8201168201806040525081019061058b91906109ef565b116105cb576040517f08c379a00000000000000000000000000000000000000000000000000000000081526004016105c290610e6a565b60405180910390fd5b33600160006101000a81548173ffffffffffffffffffffffffffffffffffffffff021916908373ffffffffffffffffffffffffffffffffffffffff16021790555060008060009054906101000a900473ffffffffffffffffffffffffffffffffffffffff1673ffffffffffffffffffffffffffffffffffffffff163460405161065390610cc9565b60006040518083038185875af1925050503d8060008114610690576040519150601f19603f3d011682016040523d82523d6000602084013e610695565b606091505b50509050806106d9576040517f08c379a00000000000000000000000000000000000000000000000000000000081526004016106d090610dca565b60405180910390fd5b600860009054906101000a900473ffffffffffffffffffffffffffffffffffffffff1673ffffffffffffffffffffffffffffffffffffffff166323b872dd60008054906101000a900473ffffffffffffffffffffffffffffffffffffffff16600160009054906101000a900473ffffffffffffffffffffffffffffffffffffffff166007546040518463ffffffff1660e01b815260040161077c93929190610d2f565b602060405180830381600087803b15801561079657600080fd5b505af11580156107aa573d6000803e3d6000fd5b505050506040513d601f19601f820116820180604052508101906107ce91906109c6565b507fe684a55f31b79eca403df938249029212a5925ec6be8012e099b45bc1019e5d2600160009054906101000a900473ffffffffffffffffffffffffffffffffffffffff1634604051610822929190610d66565b60405180910390a15050565b600160009054906101000a900473ffffffffffffffffffffffffffffffffffffffff1681565b60008060009054906101000a900473ffffffffffffffffffffffffffffffffffffffff16905090565b60008054906101000a900473ffffffffffffffffffffffffffffffffffffffff1681565b600060045442116108e7576040517f08c379a00000000000000000000000000000000000000000000000000000000081526004016108de90610e0a565b60405180910390fd5b6000600454426108f79190610f6c565b9050600060045460055461090b9190610f6c565b6064836109189190610f12565b6109229190610ee1565b905060006064600354836109369190610f12565b6109409190610ee1565b90506000816003546109529190610f6c565b90508094505050505090565b60075481565b60055481565b60065481565b60035481565b600860009054906101000a900473ffffffffffffffffffffffffffffffffffffffff1681565b6000815190506109ab816110b2565b92915050565b6000815190506109c0816110c9565b92915050565b6000602082840312156109d857600080fd5b60006109e68482850161099c565b91505092915050565b600060208284031215610a0157600080fd5b6000610a0f848285016109b1565b91505092915050565b610a2181610ffa565b82525050565b610a3081610fb2565b82525050565b610a3f81610fa0565b82525050565b610a4e8161100c565b82525050565b6000610a61601983610ed0565b91507f4e6f7420656e6f7567682062616c616e636520746f20626964000000000000006000830152602082019050919050565b6000610aa1602183610ed0565b91507f6661696c20746f2073656e6420455448207061796d656e7420746f206f776e6560008301527f72000000000000000000000000000000000000000000000000000000000000006020830152604082019050919050565b6000610b07601c83610ed0565b91507f41756374696f6e206974656d20686173206265656e20626f75676874000000006000830152602082019050919050565b6000610b47601a83610ed0565b91507f41756374696f6e206861736e27742073746172746564207965740000000000006000830152602082019050919050565b6000610b87602683610ed0565b91507f6f776e65722061726520756e61626c6520746f2062696420696e20746865204160008301527f756374696f6e00000000000000000000000000000000000000000000000000006020830152604082019050919050565b6000610bed601a83610ed0565b91507f616d6f756e74206973206c6f776572207468616e2070726963650000000000006000830152602082019050919050565b6000610c2d600083610ec5565b9150600082019050919050565b6000610c47602083610ed0565b91507f6e6f7420656e6f75676820746f6b656e20746f2062652061756374696f6e65646000830152602082019050919050565b6000610c87600f83610ed0565b91507f41756374696f6e20697320446f6e6500000000000000000000000000000000006000830152602082019050919050565b610cc381610ff0565b82525050565b6000610cd482610c20565b9150819050919050565b6000602082019050610cf36000830184610a36565b92915050565b6000602082019050610d0e6000830184610a18565b92915050565b6000602082019050610d296000830184610a27565b92915050565b6000606082019050610d446000830186610a18565b610d516020830185610a18565b610d5e6040830184610cba565b949350505050565b6000604082019050610d7b6000830185610a18565b610d886020830184610cba565b9392505050565b6000602082019050610da46000830184610a45565b92915050565b60006020820190508181036000830152610dc381610a54565b9050919050565b60006020820190508181036000830152610de381610a94565b9050919050565b60006020820190508181036000830152610e0381610afa565b9050919050565b60006020820190508181036000830152610e2381610b3a565b9050919050565b60006020820190508181036000830152610e4381610b7a565b9050919050565b60006020820190508181036000830152610e6381610be0565b9050919050565b60006020820190508181036000830152610e8381610c3a565b9050919050565b60006020820190508181036000830152610ea381610c7a565b9050919050565b6000602082019050610ebf6000830184610cba565b92915050565b600081905092915050565b600082825260208201905092915050565b6000610eec82610ff0565b9150610ef783610ff0565b925082610f0757610f06611083565b5b828204905092915050565b6000610f1d82610ff0565b9150610f2883610ff0565b9250817fffffffffffffffffffffffffffffffffffffffffffffffffffffffffffffffff0483118215151615610f6157610f60611054565b5b828202905092915050565b6000610f7782610ff0565b9150610f8283610ff0565b925082821015610f9557610f94611054565b5b828203905092915050565b6000610fab82610fd0565b9050919050565b6000610fbd82610fd0565b9050919050565b60008115159050919050565b600073ffffffffffffffffffffffffffffffffffffffff82169050919050565b6000819050919050565b600061100582611030565b9050919050565b60006110178261101e565b9050919050565b600061102982610fd0565b9050919050565b600061103b82611042565b9050919050565b600061104d82610fd0565b9050919050565b7f4e487b7100000000000000000000000000000000000000000000000000000000600052601160045260246000fd5b7f4e487b7100000000000000000000000000000000000000000000000000000000600052601260045260246000fd5b6110bb81610fc4565b81146110c657600080fd5b50565b6110d281610ff0565b81146110dd57600080fd5b5056fea26469706673582212202876aa5202be7efcce14279616ce2776383b3e6502546c7f7d354db6009ed2ee64736f6c63430008000033",
  "linkReferences": {},
  "deployedLinkReferences": {}
}