{
  "_format": "hh-sol-artifact-1",
  "contractName": "AuctionNFT",
  "sourceName": "contracts/AuctionNFT.sol",
  "abi": [
    {
      "inputs": [
        {
          "internalType": "uint256",
          "name": "startPrice_",
          "type": "uint256"
        },
        {
          "internalType": "uint256",
          "name": "startDate_",
          "type": "uint256"
        },
        {
          "internalType": "uint256",
          "name": "endDate_",
          "type": "uint256"
        },
        {
          "internalType": "address",
          "name": "nftAddr_",
          "type": "address"
        },
        {
          "internalType": "uint256",
          "name": "nftId_",
          "type": "uint256"
        }
      ],
      "stateMutability": "payable",
      "type": "constructor"
    },
    {
      "anonymous": false,
      "inputs": [
        {
          "indexed": false,
          "internalType": "address",
          "name": "buyer",
          "type": "address"
        },
        {
          "indexed": false,
          "internalType": "uint256",
          "name": "amount",
          "type": "uint256"
        }
      ],
      "name": "Bid",
      "type": "event"
    },
    {
      "anonymous": false,
      "inputs": [
        {
          "indexed": false,
          "internalType": "uint256",
          "name": "price",
          "type": "uint256"
        }
      ],
      "name": "CurPrice",
      "type": "event"
    },
    {
      "anonymous": false,
      "inputs": [
        {
          "indexed": false,
          "internalType": "uint256",
          "name": "price",
          "type": "uint256"
        }
      ],
      "name": "GetPrice",
      "type": "event"
    },
    {
      "inputs": [],
      "name": "bid",
      "outputs": [],
      "stateMutability": "payable",
      "type": "function"
    },
    {
      "inputs": [],
      "name": "buyer",
      "outputs": [
        {
          "internalType": "address",
          "name": "",
          "type": "address"
        }
      ],
      "stateMutability": "view",
      "type": "function"
    },
    {
      "inputs": [],
      "name": "currentPrice",
      "outputs": [
        {
          "internalType": "uint256",
          "name": "",
          "type": "uint256"
        }
      ],
      "stateMutability": "payable",
      "type": "function"
    },
    {
      "inputs": [],
      "name": "currentTime",
      "outputs": [
        {
          "internalType": "uint256",
          "name": "",
          "type": "uint256"
        }
      ],
      "stateMutability": "view",
      "type": "function"
    },
    {
      "inputs": [],
      "name": "endDate",
      "outputs": [
        {
          "internalType": "uint256",
          "name": "",
          "type": "uint256"
        }
      ],
      "stateMutability": "view",
      "type": "function"
    },
    {
      "inputs": [],
      "name": "nft",
      "outputs": [
        {
          "internalType": "contract IERC721",
          "name": "",
          "type": "address"
        }
      ],
      "stateMutability": "view",
      "type": "function"
    },
    {
      "inputs": [],
      "name": "nftId",
      "outputs": [
        {
          "internalType": "uint256",
          "name": "",
          "type": "uint256"
        }
      ],
      "stateMutability": "view",
      "type": "function"
    },
    {
      "inputs": [],
      "name": "owner",
      "outputs": [
        {
          "internalType": "address payable",
          "name": "",
          "type": "address"
        }
      ],
      "stateMutability": "view",
      "type": "function"
    },
    {
      "inputs": [],
      "name": "startDate",
      "outputs": [
        {
          "internalType": "uint256",
          "name": "",
          "type": "uint256"
        }
      ],
      "stateMutability": "view",
      "type": "function"
    },
    {
      "inputs": [],
      "name": "startPrice",
      "outputs": [
        {
          "internalType": "uint256",
          "name": "",
          "type": "uint256"
        }
      ],
      "stateMutability": "view",
      "type": "function"
    }
  ],
  "bytecode": "0x60c06040526040516200103b3803806200103b833981810160405281019062000029919062000188565b600085116200006f576040517f08c379a00000000000000000000000000000000000000000000000000000000081526004016200006690620002b0565b60405180910390fd5b838311620000b4576040517f08c379a0000000000000000000000000000000000000000000000000000000008152600401620000ab906200028e565b60405180910390fd5b336000806101000a81548173ffffffffffffffffffffffffffffffffffffffff021916908373ffffffffffffffffffffffffffffffffffffffff160217905550846002819055508360038190555082600481905550426005819055508173ffffffffffffffffffffffffffffffffffffffff1660808173ffffffffffffffffffffffffffffffffffffffff1660601b815250508060a08181525050505050505062000355565b6000815190506200016b8162000321565b92915050565b60008151905062000182816200033b565b92915050565b600080600080600060a08688031215620001a157600080fd5b6000620001b18882890162000171565b9550506020620001c48882890162000171565b9450506040620001d78882890162000171565b9350506060620001ea888289016200015a565b9250506080620001fd8882890162000171565b9150509295509295909350565b600062000219601e83620002d2565b91507f696e76616c696420656e64446174655f206f72207374617274446174655f00006000830152602082019050919050565b60006200025b601383620002d2565b91507f696e76616c696420737461727450726963655f000000000000000000000000006000830152602082019050919050565b60006020820190508181036000830152620002a9816200020a565b9050919050565b60006020820190508181036000830152620002cb816200024c565b9050919050565b600082825260208201905092915050565b6000620002f082620002f7565b9050919050565b600073ffffffffffffffffffffffffffffffffffffffff82169050919050565b6000819050919050565b6200032c81620002e3565b81146200033857600080fd5b50565b620003468162000317565b81146200035257600080fd5b50565b60805160601c60a051610caf6200038c6000396000818161055801526107580152600081816104d801526106270152610caf6000f3fe6080604052600436106100915760003560e01c80639d1b464a116100595780639d1b464a1461014c578063c24a0f8b1461016a578063c6bc518214610195578063d18e81b3146101c0578063f1a9af89146101eb57610091565b80630b97bc86146100965780631998aeef146100c157806347ccca02146100cb5780637150d8ae146100f65780638da5cb5b14610121575b600080fd5b3480156100a257600080fd5b506100ab610216565b6040516100b89190610a88565b60405180910390f35b6100c961021c565b005b3480156100d757600080fd5b506100e0610625565b6040516100ed91906109cd565b60405180910390f35b34801561010257600080fd5b5061010b610649565b6040516101189190610937565b60405180910390f35b34801561012d57600080fd5b5061013661066f565b6040516101439190610952565b60405180910390f35b610154610693565b6040516101619190610a88565b60405180910390f35b34801561017657600080fd5b5061017f610750565b60405161018c9190610a88565b60405180910390f35b3480156101a157600080fd5b506101aa610756565b6040516101b79190610a88565b60405180910390f35b3480156101cc57600080fd5b506101d561077a565b6040516101e29190610a88565b60405180910390f35b3480156101f757600080fd5b50610200610780565b60405161020d9190610a88565b60405180910390f35b60035481565b60008054906101000a900473ffffffffffffffffffffffffffffffffffffffff1673ffffffffffffffffffffffffffffffffffffffff163373ffffffffffffffffffffffffffffffffffffffff1614156102ab576040517f08c379a00000000000000000000000000000000000000000000000000000000081526004016102a290610a28565b60405180910390fd5b60035442116102ef576040517f08c379a00000000000000000000000000000000000000000000000000000000081526004016102e690610a08565b60405180910390fd5b6004544210610333576040517f08c379a000000000000000000000000000000000000000000000000000000000815260040161032a90610a68565b60405180910390fd5b600073ffffffffffffffffffffffffffffffffffffffff16600160009054906101000a900473ffffffffffffffffffffffffffffffffffffffff1673ffffffffffffffffffffffffffffffffffffffff16146103c4576040517f08c379a00000000000000000000000000000000000000000000000000000000081526004016103bb906109e8565b60405180910390fd5b6e13426172c74d822b878fe80000000034106103df57600080fd5b60006103e9610693565b90508034101561042e576040517f08c379a000000000000000000000000000000000000000000000000000000000815260040161042590610a48565b60405180910390fd5b33600160006101000a81548173ffffffffffffffffffffffffffffffffffffffff021916908373ffffffffffffffffffffffffffffffffffffffff16021790555060008054906101000a900473ffffffffffffffffffffffffffffffffffffffff1673ffffffffffffffffffffffffffffffffffffffff166108fc349081150290604051600060405180830381858888f193505050501580156104d5573d6000803e3d6000fd5b507f000000000000000000000000000000000000000000000000000000000000000073ffffffffffffffffffffffffffffffffffffffff1663beabacc860008054906101000a900473ffffffffffffffffffffffffffffffffffffffff16600160009054906101000a900473ffffffffffffffffffffffffffffffffffffffff167f00000000000000000000000000000000000000000000000000000000000000006040518463ffffffff1660e01b81526004016105959392919061096d565b600060405180830381600087803b1580156105af57600080fd5b505af11580156105c3573d6000803e3d6000fd5b505050507fe684a55f31b79eca403df938249029212a5925ec6be8012e099b45bc1019e5d2600160009054906101000a900473ffffffffffffffffffffffffffffffffffffffff163460405161061a9291906109a4565b60405180910390a150565b7f000000000000000000000000000000000000000000000000000000000000000081565b600160009054906101000a900473ffffffffffffffffffffffffffffffffffffffff1681565b60008054906101000a900473ffffffffffffffffffffffffffffffffffffffff1681565b600060035442116106d9576040517f08c379a00000000000000000000000000000000000000000000000000000000081526004016106d090610a08565b60405180910390fd5b6000600354426106e99190610b3f565b905060006003546004546106fd9190610b3f565b60648361070a9190610ae5565b6107149190610ab4565b905060006064600254836107289190610ae5565b6107329190610ab4565b90506000816002546107449190610b3f565b90508094505050505090565b60045481565b7f000000000000000000000000000000000000000000000000000000000000000081565b60055481565b60025481565b61078f81610bc1565b82525050565b61079e81610b85565b82525050565b6107ad81610b73565b82525050565b6107bc81610bd3565b82525050565b60006107cf601c83610aa3565b91507f41756374696f6e206974656d20686173206265656e20626f75676874000000006000830152602082019050919050565b600061080f601a83610aa3565b91507f41756374696f6e206861736e27742073746172746564207965740000000000006000830152602082019050919050565b600061084f602683610aa3565b91507f6f776e65722061726520756e61626c6520746f2062696420696e20746865204160008301527f756374696f6e00000000000000000000000000000000000000000000000000006020830152604082019050919050565b60006108b5601a83610aa3565b91507f616d6f756e74206973206c6f776572207468616e2070726963650000000000006000830152602082019050919050565b60006108f5600f83610aa3565b91507f41756374696f6e20697320446f6e6500000000000000000000000000000000006000830152602082019050919050565b61093181610bb7565b82525050565b600060208201905061094c60008301846107a4565b92915050565b60006020820190506109676000830184610795565b92915050565b60006060820190506109826000830186610786565b61098f60208301856107a4565b61099c6040830184610928565b949350505050565b60006040820190506109b960008301856107a4565b6109c66020830184610928565b9392505050565b60006020820190506109e260008301846107b3565b92915050565b60006020820190508181036000830152610a01816107c2565b9050919050565b60006020820190508181036000830152610a2181610802565b9050919050565b60006020820190508181036000830152610a4181610842565b9050919050565b60006020820190508181036000830152610a61816108a8565b9050919050565b60006020820190508181036000830152610a81816108e8565b9050919050565b6000602082019050610a9d6000830184610928565b92915050565b600082825260208201905092915050565b6000610abf82610bb7565b9150610aca83610bb7565b925082610ada57610ad9610c4a565b5b828204905092915050565b6000610af082610bb7565b9150610afb83610bb7565b9250817fffffffffffffffffffffffffffffffffffffffffffffffffffffffffffffffff0483118215151615610b3457610b33610c1b565b5b828202905092915050565b6000610b4a82610bb7565b9150610b5583610bb7565b925082821015610b6857610b67610c1b565b5b828203905092915050565b6000610b7e82610b97565b9050919050565b6000610b9082610b97565b9050919050565b600073ffffffffffffffffffffffffffffffffffffffff82169050919050565b6000819050919050565b6000610bcc82610bf7565b9050919050565b6000610bde82610be5565b9050919050565b6000610bf082610b97565b9050919050565b6000610c0282610c09565b9050919050565b6000610c1482610b97565b9050919050565b7f4e487b7100000000000000000000000000000000000000000000000000000000600052601160045260246000fd5b7f4e487b7100000000000000000000000000000000000000000000000000000000600052601260045260246000fdfea2646970667358221220ceef7bab0cbb1f100c81595a429f748a9fe474d8db650f408fc1d501c87f8aea64736f6c63430008000033",
  "linkReferences": {},
  "deployedLinkReferences": {}
}