{
  "contractName": "Auction",
  "abi": [
    {
      "inputs": [
        {
          "internalType": "uint256",
          "name": "startPrice_",
          "type": "uint256"
        },
        {
          "internalType": "uint256",
          "name": "startDate_",
          "type": "uint256"
        },
        {
          "internalType": "uint256",
          "name": "endDate_",
          "type": "uint256"
        },
        {
          "internalType": "uint256",
          "name": "tokenAmount_",
          "type": "uint256"
        },
        {
          "internalType": "address",
          "name": "tokenAddr_",
          "type": "address"
        }
      ],
      "stateMutability": "payable",
      "type": "constructor",
      "payable": true
    },
    {
      "anonymous": false,
      "inputs": [
        {
          "indexed": false,
          "internalType": "address",
          "name": "buyer",
          "type": "address"
        },
        {
          "indexed": false,
          "internalType": "uint256",
          "name": "amount",
          "type": "uint256"
        }
      ],
      "name": "Bid",
      "type": "event"
    },
    {
      "inputs": [],
      "name": "auctionedAmount",
      "outputs": [
        {
          "internalType": "uint256",
          "name": "",
          "type": "uint256"
        }
      ],
      "stateMutability": "view",
      "type": "function",
      "constant": true
    },
    {
      "inputs": [],
      "name": "buyer",
      "outputs": [
        {
          "internalType": "address payable",
          "name": "",
          "type": "address"
        }
      ],
      "stateMutability": "view",
      "type": "function",
      "constant": true
    },
    {
      "inputs": [],
      "name": "currentTime",
      "outputs": [
        {
          "internalType": "uint256",
          "name": "",
          "type": "uint256"
        }
      ],
      "stateMutability": "view",
      "type": "function",
      "constant": true
    },
    {
      "inputs": [],
      "name": "endDate",
      "outputs": [
        {
          "internalType": "uint256",
          "name": "",
          "type": "uint256"
        }
      ],
      "stateMutability": "view",
      "type": "function",
      "constant": true
    },
    {
      "inputs": [],
      "name": "owner",
      "outputs": [
        {
          "internalType": "address payable",
          "name": "",
          "type": "address"
        }
      ],
      "stateMutability": "view",
      "type": "function",
      "constant": true
    },
    {
      "inputs": [],
      "name": "startDate",
      "outputs": [
        {
          "internalType": "uint256",
          "name": "",
          "type": "uint256"
        }
      ],
      "stateMutability": "view",
      "type": "function",
      "constant": true
    },
    {
      "inputs": [],
      "name": "startPrice",
      "outputs": [
        {
          "internalType": "uint256",
          "name": "",
          "type": "uint256"
        }
      ],
      "stateMutability": "view",
      "type": "function",
      "constant": true
    },
    {
      "inputs": [],
      "name": "token",
      "outputs": [
        {
          "internalType": "contract Token",
          "name": "",
          "type": "address"
        }
      ],
      "stateMutability": "view",
      "type": "function",
      "constant": true
    },
    {
      "inputs": [],
      "name": "bid",
      "outputs": [],
      "stateMutability": "payable",
      "type": "function",
      "payable": true
    },
    {
      "inputs": [],
      "name": "currentPrice",
      "outputs": [
        {
          "internalType": "uint256",
          "name": "",
          "type": "uint256"
        }
      ],
      "stateMutability": "payable",
      "type": "function",
      "payable": true
    }
  ],
  "bytecode": "0x608060405260405162001630380380620016308339818101604052810190620000299190620002f3565b600085116200006f576040517f08c379a00000000000000000000000000000000000000000000000000000000081526004016200006690620003dc565b60405180910390fd5b838311620000b4576040517f08c379a0000000000000000000000000000000000000000000000000000000008152600401620000ab906200044e565b60405180910390fd5b80600860006101000a81548173ffffffffffffffffffffffffffffffffffffffff021916908373ffffffffffffffffffffffffffffffffffffffff1602179055506000600860009054906101000a900473ffffffffffffffffffffffffffffffffffffffff1673ffffffffffffffffffffffffffffffffffffffff166370a08231336040518263ffffffff1660e01b815260040162000154919062000481565b602060405180830381865afa15801562000172573d6000803e3d6000fd5b505050506040513d601f19601f820116820180604052508101906200019891906200049e565b9050828111620001df576040517f08c379a0000000000000000000000000000000000000000000000000000000008152600401620001d69062000520565b60405180910390fd5b336000806101000a81548173ffffffffffffffffffffffffffffffffffffffff021916908373ffffffffffffffffffffffffffffffffffffffff160217905550856003819055508460048190555083600581905550426006819055508260078190555050505050505062000542565b600080fd5b6000819050919050565b620002688162000253565b81146200027457600080fd5b50565b60008151905062000288816200025d565b92915050565b600073ffffffffffffffffffffffffffffffffffffffff82169050919050565b6000620002bb826200028e565b9050919050565b620002cd81620002ae565b8114620002d957600080fd5b50565b600081519050620002ed81620002c2565b92915050565b600080600080600060a086880312156200031257620003116200024e565b5b6000620003228882890162000277565b9550506020620003358882890162000277565b9450506040620003488882890162000277565b93505060606200035b8882890162000277565b92505060806200036e88828901620002dc565b9150509295509295909350565b600082825260208201905092915050565b7f696e76616c696420737461727450726963655f00000000000000000000000000600082015250565b6000620003c46013836200037b565b9150620003d1826200038c565b602082019050919050565b60006020820190508181036000830152620003f781620003b5565b9050919050565b7f696e76616c696420656e64446174655f206f72207374617274446174655f0000600082015250565b600062000436601e836200037b565b91506200044382620003fe565b602082019050919050565b60006020820190508181036000830152620004698162000427565b9050919050565b6200047b81620002ae565b82525050565b600060208201905062000498600083018462000470565b92915050565b600060208284031215620004b757620004b66200024e565b5b6000620004c78482850162000277565b91505092915050565b7f6e6f7420656e6f75676820746f6b656e20746f2062652061756374696f6e6564600082015250565b6000620005086020836200037b565b91506200051582620004d0565b602082019050919050565b600060208201905081810360008301526200053b81620004f9565b9050919050565b6110de80620005526000396000f3fe6080604052600436106100915760003560e01c8063bc5bd34311610059578063bc5bd3431461013f578063c24a0f8b1461016a578063d18e81b314610195578063f1a9af89146101c0578063fc0c546a146101eb57610091565b80630b97bc86146100965780631998aeef146100c15780637150d8ae146100cb5780638da5cb5b146100f65780639d1b464a14610121575b600080fd5b3480156100a257600080fd5b506100ab610216565b6040516100b89190610938565b60405180910390f35b6100c961021c565b005b3480156100d757600080fd5b506100e06107da565b6040516100ed9190610994565b60405180910390f35b34801561010257600080fd5b5061010b610800565b6040516101189190610994565b60405180910390f35b610129610824565b6040516101369190610938565b60405180910390f35b34801561014b57600080fd5b506101546108e1565b6040516101619190610938565b60405180910390f35b34801561017657600080fd5b5061017f6108e7565b60405161018c9190610938565b60405180910390f35b3480156101a157600080fd5b506101aa6108ed565b6040516101b79190610938565b60405180910390f35b3480156101cc57600080fd5b506101d56108f3565b6040516101e29190610938565b60405180910390f35b3480156101f757600080fd5b506102006108f9565b60405161020d9190610a0e565b60405180910390f35b60045481565b60008054906101000a900473ffffffffffffffffffffffffffffffffffffffff1673ffffffffffffffffffffffffffffffffffffffff163373ffffffffffffffffffffffffffffffffffffffff1614156102ab576040517f08c379a00000000000000000000000000000000000000000000000000000000081526004016102a290610aac565b60405180910390fd5b60045442116102ef576040517f08c379a00000000000000000000000000000000000000000000000000000000081526004016102e690610b18565b60405180910390fd5b6005544210610333576040517f08c379a000000000000000000000000000000000000000000000000000000000815260040161032a90610b84565b60405180910390fd5b600073ffffffffffffffffffffffffffffffffffffffff16600160009054906101000a900473ffffffffffffffffffffffffffffffffffffffff1673ffffffffffffffffffffffffffffffffffffffff16146103c4576040517f08c379a00000000000000000000000000000000000000000000000000000000081526004016103bb90610bf0565b60405180910390fd5b6e13426172c74d822b878fe80000000034106103df57600080fd5b343373ffffffffffffffffffffffffffffffffffffffff163111610438576040517f08c379a000000000000000000000000000000000000000000000000000000000815260040161042f90610c5c565b60405180910390fd5b6000610442610824565b905080341015610487576040517f08c379a000000000000000000000000000000000000000000000000000000000815260040161047e90610cc8565b60405180910390fd5b600754600860009054906101000a900473ffffffffffffffffffffffffffffffffffffffff1673ffffffffffffffffffffffffffffffffffffffff166370a0823160008054906101000a900473ffffffffffffffffffffffffffffffffffffffff166040518263ffffffff1660e01b81526004016105059190610d09565b602060405180830381865afa158015610522573d6000803e3d6000fd5b505050506040513d601f19601f820116820180604052508101906105469190610d55565b11610586576040517f08c379a000000000000000000000000000000000000000000000000000000000815260040161057d90610dce565b60405180910390fd5b33600160006101000a81548173ffffffffffffffffffffffffffffffffffffffff021916908373ffffffffffffffffffffffffffffffffffffffff16021790555060008060009054906101000a900473ffffffffffffffffffffffffffffffffffffffff1673ffffffffffffffffffffffffffffffffffffffff163460405161060e90610e1f565b60006040518083038185875af1925050503d806000811461064b576040519150601f19603f3d011682016040523d82523d6000602084013e610650565b606091505b5050905080610694576040517f08c379a000000000000000000000000000000000000000000000000000000000815260040161068b90610ea6565b60405180910390fd5b600860009054906101000a900473ffffffffffffffffffffffffffffffffffffffff1673ffffffffffffffffffffffffffffffffffffffff166323b872dd60008054906101000a900473ffffffffffffffffffffffffffffffffffffffff16600160009054906101000a900473ffffffffffffffffffffffffffffffffffffffff166007546040518463ffffffff1660e01b815260040161073793929190610ec6565b6020604051808303816000875af1158015610756573d6000803e3d6000fd5b505050506040513d601f19601f8201168201806040525081019061077a9190610f35565b507fe684a55f31b79eca403df938249029212a5925ec6be8012e099b45bc1019e5d2600160009054906101000a900473ffffffffffffffffffffffffffffffffffffffff16346040516107ce929190610f62565b60405180910390a15050565b600160009054906101000a900473ffffffffffffffffffffffffffffffffffffffff1681565b60008054906101000a900473ffffffffffffffffffffffffffffffffffffffff1681565b6000600454421161086a576040517f08c379a000000000000000000000000000000000000000000000000000000000815260040161086190610b18565b60405180910390fd5b60006004544261087a9190610fba565b9050600060045460055461088e9190610fba565b60648361089b9190610fee565b6108a59190611077565b905060006064600354836108b99190610fee565b6108c39190611077565b90506000816003546108d59190610fba565b90508094505050505090565b60075481565b60055481565b60065481565b60035481565b600860009054906101000a900473ffffffffffffffffffffffffffffffffffffffff1681565b6000819050919050565b6109328161091f565b82525050565b600060208201905061094d6000830184610929565b92915050565b600073ffffffffffffffffffffffffffffffffffffffff82169050919050565b600061097e82610953565b9050919050565b61098e81610973565b82525050565b60006020820190506109a96000830184610985565b92915050565b6000819050919050565b60006109d46109cf6109ca84610953565b6109af565b610953565b9050919050565b60006109e6826109b9565b9050919050565b60006109f8826109db565b9050919050565b610a08816109ed565b82525050565b6000602082019050610a2360008301846109ff565b92915050565b600082825260208201905092915050565b7f6f776e65722061726520756e61626c6520746f2062696420696e20746865204160008201527f756374696f6e0000000000000000000000000000000000000000000000000000602082015250565b6000610a96602683610a29565b9150610aa182610a3a565b604082019050919050565b60006020820190508181036000830152610ac581610a89565b9050919050565b7f41756374696f6e206861736e2774207374617274656420796574000000000000600082015250565b6000610b02601a83610a29565b9150610b0d82610acc565b602082019050919050565b60006020820190508181036000830152610b3181610af5565b9050919050565b7f41756374696f6e20697320446f6e650000000000000000000000000000000000600082015250565b6000610b6e600f83610a29565b9150610b7982610b38565b602082019050919050565b60006020820190508181036000830152610b9d81610b61565b9050919050565b7f41756374696f6e206974656d20686173206265656e20626f7567687400000000600082015250565b6000610bda601c83610a29565b9150610be582610ba4565b602082019050919050565b60006020820190508181036000830152610c0981610bcd565b9050919050565b7f4e6f7420656e6f7567682062616c616e636520746f2062696400000000000000600082015250565b6000610c46601983610a29565b9150610c5182610c10565b602082019050919050565b60006020820190508181036000830152610c7581610c39565b9050919050565b7f616d6f756e74206973206c6f776572207468616e207072696365000000000000600082015250565b6000610cb2601a83610a29565b9150610cbd82610c7c565b602082019050919050565b60006020820190508181036000830152610ce181610ca5565b9050919050565b6000610cf3826109db565b9050919050565b610d0381610ce8565b82525050565b6000602082019050610d1e6000830184610cfa565b92915050565b600080fd5b610d328161091f565b8114610d3d57600080fd5b50565b600081519050610d4f81610d29565b92915050565b600060208284031215610d6b57610d6a610d24565b5b6000610d7984828501610d40565b91505092915050565b7f6e6f7420656e6f75676820746f6b656e20746f2062652061756374696f6e6564600082015250565b6000610db8602083610a29565b9150610dc382610d82565b602082019050919050565b60006020820190508181036000830152610de781610dab565b9050919050565b600081905092915050565b50565b6000610e09600083610dee565b9150610e1482610df9565b600082019050919050565b6000610e2a82610dfc565b9150819050919050565b7f6661696c20746f2073656e6420455448207061796d656e7420746f206f776e6560008201527f7200000000000000000000000000000000000000000000000000000000000000602082015250565b6000610e90602183610a29565b9150610e9b82610e34565b604082019050919050565b60006020820190508181036000830152610ebf81610e83565b9050919050565b6000606082019050610edb6000830186610cfa565b610ee86020830185610cfa565b610ef56040830184610929565b949350505050565b60008115159050919050565b610f1281610efd565b8114610f1d57600080fd5b50565b600081519050610f2f81610f09565b92915050565b600060208284031215610f4b57610f4a610d24565b5b6000610f5984828501610f20565b91505092915050565b6000604082019050610f776000830185610cfa565b610f846020830184610929565b9392505050565b7f4e487b7100000000000000000000000000000000000000000000000000000000600052601160045260246000fd5b6000610fc58261091f565b9150610fd08361091f565b925082821015610fe357610fe2610f8b565b5b828203905092915050565b6000610ff98261091f565b91506110048361091f565b9250817fffffffffffffffffffffffffffffffffffffffffffffffffffffffffffffffff048311821515161561103d5761103c610f8b565b5b828202905092915050565b7f4e487b7100000000000000000000000000000000000000000000000000000000600052601260045260246000fd5b60006110828261091f565b915061108d8361091f565b92508261109d5761109c611048565b5b82820490509291505056fea264697066735822122053cc877430a2cfe49f2cc726f8eb0977589f4ec1b08a923552ed451d2e14ebcb64736f6c634300080a0033",
  "immutableReferences": {},
  "source": "// SPDX-License-Identifier: MIT\npragma solidity >=0.5.0;\n\nimport \"./Token.sol\";\n\ncontract Auction{\n    address payable public owner;\n    address payable public buyer;\n    address tokenAddr;\n    uint256 public startPrice;\n    uint256 public startDate;\n    uint256 public endDate;\n    uint256 public currentTime;\n    uint256 public auctionedAmount;\n    Token public token;\n\n    //we auction 1 token per auction by default\n    event Bid(address buyer, uint256 amount);\n\n    constructor(\n        uint256 startPrice_,\n        uint256 startDate_,\n        uint256 endDate_,\n        uint256 tokenAmount_,\n        address tokenAddr_\n    ) payable {\n        require(startPrice_ > 0, \"invalid startPrice_\");\n        require(endDate_ > startDate_, \"invalid endDate_ or startDate_\");\n        token = Token(tokenAddr_);\n        uint256 TKNbalance = token.balanceOf(msg.sender);\n        require(TKNbalance > tokenAmount_, \"not enough token to be auctioned\");\n        owner = payable(msg.sender);\n        startPrice = startPrice_;\n        startDate = startDate_;\n        endDate = endDate_;\n        currentTime = block.timestamp;\n        //How many TKN that is auctioned\n        auctionedAmount = tokenAmount_;\n    }\n\n    function bid() external payable {\n        require(msg.sender != owner, \"owner are unable to bid in the Auction\");\n        require(block.timestamp > startDate, \"Auction hasn't started yet\");\n        require(block.timestamp < endDate, \"Auction is Done\");\n        require(buyer == address(0), \"Auction item has been bought\");\n        require(msg.value < 1e35);\n        require(\n            address(msg.sender).balance > msg.value,\n            \"Not enough balance to bid\"\n        );\n\n        uint256 price = currentPrice();\n\n        require(msg.value >= price, \"amount is lower than price\");\n        //to prevent owner from setup an auction and using the auctioned token amount for other transaction\n        require(\n            token.balanceOf(owner) > auctionedAmount,\n            \"not enough token to be auctioned\"\n        );\n\n        buyer = payable(msg.sender);\n        (bool sent, ) = owner.call{value: msg.value}(\"\");\n        require(sent, \"fail to send ETH payment to owner\");\n        token.transferFrom(owner, buyer, auctionedAmount);\n\n        emit Bid(buyer, msg.value);\n    }\n\n    function currentPrice() public payable returns (uint256) {\n        require(block.timestamp > startDate, \"Auction hasn't started yet\");\n        uint256 elapse = block.timestamp - startDate;\n        uint256 calculated = (elapse * 100) / (endDate - startDate);\n        uint256 deduction = (calculated * startPrice) / 100;\n        uint256 currPrice = startPrice - deduction;\n        return currPrice;\n    }\n}\n",
  "sourcePath": "/Users/kevinh/Documents/Sides/dutchAuction/contracts/Auction.sol",
  "compiler": {
    "name": "solc",
    "version": "0.8.10+commit.fc410830.Emscripten.clang"
  },
  "schemaVersion": "3.4.3",
  "updatedAt": "2021-11-18T15:29:49.539Z",
  "networkType": "ethereum",
  "devdoc": {
    "kind": "dev",
    "methods": {},
    "version": 1
  },
  "userdoc": {
    "kind": "user",
    "methods": {},
    "version": 1
  }
}